{
  "_format": "hh3-artifact-1",
  "contractName": "Staking",
  "sourceName": "contracts/Staking.sol",
  "abi": [
    {
      "inputs": [
        {
          "internalType": "address",
          "name": "stakingToken",
          "type": "address"
        },
        {
          "internalType": "address",
          "name": "rewardToken",
          "type": "address"
        }
      ],
      "stateMutability": "nonpayable",
      "type": "constructor"
    },
    {
      "anonymous": false,
      "inputs": [
        {
          "indexed": true,
          "internalType": "address",
          "name": "user",
          "type": "address"
        },
        {
          "indexed": true,
          "internalType": "uint256",
          "name": "amount",
          "type": "uint256"
        }
      ],
      "name": "RewardsClaimed",
      "type": "event"
    },
    {
      "anonymous": false,
      "inputs": [
        {
          "indexed": true,
          "internalType": "address",
          "name": "user",
          "type": "address"
        },
        {
          "indexed": true,
          "internalType": "uint256",
          "name": "amount",
          "type": "uint256"
        }
      ],
      "name": "Staked",
      "type": "event"
    },
    {
      "anonymous": false,
      "inputs": [
        {
          "indexed": true,
          "internalType": "address",
          "name": "user",
          "type": "address"
        },
        {
          "indexed": true,
          "internalType": "uint256",
          "name": "amount",
          "type": "uint256"
        }
      ],
      "name": "Withdrawn",
      "type": "event"
    },
    {
      "inputs": [],
      "name": "REWARD_RATE",
      "outputs": [
        {
          "internalType": "uint256",
          "name": "",
          "type": "uint256"
        }
      ],
      "stateMutability": "view",
      "type": "function"
    },
    {
      "inputs": [
        {
          "internalType": "address",
          "name": "account",
          "type": "address"
        }
      ],
      "name": "earned",
      "outputs": [
        {
          "internalType": "uint256",
          "name": "",
          "type": "uint256"
        }
      ],
      "stateMutability": "view",
      "type": "function"
    },
    {
      "inputs": [],
      "name": "getReward",
      "outputs": [],
      "stateMutability": "nonpayable",
      "type": "function"
    },
    {
      "inputs": [],
      "name": "lastUpdateTime",
      "outputs": [
        {
          "internalType": "uint256",
          "name": "",
          "type": "uint256"
        }
      ],
      "stateMutability": "view",
      "type": "function"
    },
    {
      "inputs": [],
      "name": "rewardPerToken",
      "outputs": [
        {
          "internalType": "uint256",
          "name": "",
          "type": "uint256"
        }
      ],
      "stateMutability": "view",
      "type": "function"
    },
    {
      "inputs": [],
      "name": "rewardPerTokenStored",
      "outputs": [
        {
          "internalType": "uint256",
          "name": "",
          "type": "uint256"
        }
      ],
      "stateMutability": "view",
      "type": "function"
    },
    {
      "inputs": [
        {
          "internalType": "address",
          "name": "",
          "type": "address"
        }
      ],
      "name": "rewards",
      "outputs": [
        {
          "internalType": "uint256",
          "name": "",
          "type": "uint256"
        }
      ],
      "stateMutability": "view",
      "type": "function"
    },
    {
      "inputs": [],
      "name": "s_rewardToken",
      "outputs": [
        {
          "internalType": "contract IERC20",
          "name": "",
          "type": "address"
        }
      ],
      "stateMutability": "view",
      "type": "function"
    },
    {
      "inputs": [],
      "name": "s_stakingToken",
      "outputs": [
        {
          "internalType": "contract IERC20",
          "name": "",
          "type": "address"
        }
      ],
      "stateMutability": "view",
      "type": "function"
    },
    {
      "inputs": [
        {
          "internalType": "uint256",
          "name": "amount",
          "type": "uint256"
        }
      ],
      "name": "stake",
      "outputs": [],
      "stateMutability": "nonpayable",
      "type": "function"
    },
    {
      "inputs": [
        {
          "internalType": "address",
          "name": "",
          "type": "address"
        }
      ],
      "name": "stakedBalance",
      "outputs": [
        {
          "internalType": "uint256",
          "name": "",
          "type": "uint256"
        }
      ],
      "stateMutability": "view",
      "type": "function"
    },
    {
      "inputs": [
        {
          "internalType": "address",
          "name": "",
          "type": "address"
        }
      ],
      "name": "userRewardPerTokenPaid",
      "outputs": [
        {
          "internalType": "uint256",
          "name": "",
          "type": "uint256"
        }
      ],
      "stateMutability": "view",
      "type": "function"
    },
    {
      "inputs": [
        {
          "internalType": "uint256",
          "name": "amount",
          "type": "uint256"
        }
      ],
      "name": "withdrawStakedTokens",
      "outputs": [],
      "stateMutability": "nonpayable",
      "type": "function"
    }
  ],
  "bytecode": "0x6080604052348015600e575f5ffd5b506040516109f93803806109f9833981016040819052602b916079565b60015f81905580546001600160a01b039384166001600160a01b0319918216179091556002805492909316911617905560a5565b80516001600160a01b03811681146074575f5ffd5b919050565b5f5f604083850312156089575f5ffd5b609083605f565b9150609c60208401605f565b90509250929050565b610947806100b25f395ff3fe608060405234801561000f575f5ffd5b50600436106100ca575f3560e01c80636374cc0011610088578063adca9b7211610063578063adca9b72146101bb578063c8f33c91146101ce578063cd3daf9d146101d7578063df136d65146101df575f5ffd5b80636374cc001461015e5780638b87634714610189578063a694fc3a146101a8575f5ffd5b80628cc262146100ce5780630700037d146100f45780630a57336a146101135780633d18b912146101285780635997bb3714610130578063602172671461013f575b5f5ffd5b6100e16100dc366004610845565b6101e8565b6040519081526020015b60405180910390f35b6100e1610102366004610845565b60076020525f908152604090205481565b61012661012136600461086b565b610264565b005b610126610484565b6100e1670de0b6b3a764000081565b6100e161014d366004610845565b60066020525f908152604090205481565b600254610171906001600160a01b031681565b6040516001600160a01b0390911681526020016100eb565b6100e1610197366004610845565b60086020525f908152604090205481565b6101266101b636600461086b565b610611565b600154610171906001600160a01b031681565b6100e160055481565b6100e1610749565b6100e160045481565b6001600160a01b0381165f90815260076020908152604080832054600890925282205461025e919061025890670de0b6b3a764000090610252906102349061022e610749565b906107bb565b6001600160a01b0388165f90815260066020526040902054906107cd565b906107d8565b906107e3565b92915050565b61026c6107ee565b33610275610749565b60045542600555610285816101e8565b6001600160a01b0382165f90815260076020908152604080832093909355600454600890915291902055816103015760405162461bcd60e51b815260206004820181905260248201527f416d6f756e74206d7573742062652067726561746572207468616e207a65726f60448201526064015b60405180910390fd5b335f9081526006602052604090205482111561035f5760405162461bcd60e51b815260206004820152601860248201527f5374616b656420616d6f756e74206e6f7420656e6f756768000000000000000060448201526064016102f8565b60035461036c90836107bb565b600355335f9081526006602052604090205461038890836107bb565b335f8181526006602052604080822093909355915184927f7084f5476618d8e60b11ef0d7d3f06914655adb8793e28ff7f018d4c76d505d591a360015460405163a9059cbb60e01b8152336004820152602481018490525f916001600160a01b03169063a9059cbb906044015b6020604051808303815f875af1158015610411573d5f5f3e3d5ffd5b505050506040513d601f19601f820116820180604052508101906104359190610882565b9050806104765760405162461bcd60e51b815260206004820152600f60248201526e151c985b9cd9995c8811985a5b1959608a1b60448201526064016102f8565b505061048160015f55565b50565b61048c6107ee565b33610495610749565b600455426005556104a5816101e8565b6001600160a01b0382165f908152600760208181526040808420949094556004546008825284842055338352522054806105175760405162461bcd60e51b81526020600482015260136024820152724e6f207265776172647320746f20636c61696d60681b60448201526064016102f8565b335f81815260076020526040808220829055518392917ffc30cddea38e2bf4d6ea7d3f9ed3b6ad7f176419f4963bd81318067a4aee73fe91a360025460405163a9059cbb60e01b8152336004820152602481018390525f916001600160a01b03169063a9059cbb906044016020604051808303815f875af115801561059e573d5f5f3e3d5ffd5b505050506040513d601f19601f820116820180604052508101906105c29190610882565b9050806106035760405162461bcd60e51b815260206004820152600f60248201526e151c985b9cd9995c8811985a5b1959608a1b60448201526064016102f8565b50505061060f60015f55565b565b6106196107ee565b33610622610749565b60045542600555610632816101e8565b6001600160a01b0382165f90815260076020908152604080832093909355600454600890915291902055816106a95760405162461bcd60e51b815260206004820181905260248201527f416d6f756e74206d7573742062652067726561746572207468616e207a65726f60448201526064016102f8565b6003546106b690836107e3565b600355335f908152600660205260409020546106d290836107e3565b335f8181526006602052604080822093909355915184927f9e71bc8eea02a63969f509818f2dafb9254532904319f9dbda79b67bd34a5f3d91a36001546040516323b872dd60e01b8152336004820152306024820152604481018490525f916001600160a01b0316906323b872dd906064016103f5565b5f6003545f0361075a575060045490565b5f610770600554426107bb90919063ffffffff16565b90505f610785670de0b6b3a7640000836107cd565b90506107b46107ab600354610252670de0b6b3a7640000856107cd90919063ffffffff16565b600454906107e3565b9250505090565b5f6107c682846108b5565b9392505050565b5f6107c682846108c8565b5f6107c682846108df565b5f6107c682846108fe565b60025f540361083f5760405162461bcd60e51b815260206004820152601f60248201527f5265656e7472616e637947756172643a207265656e7472616e742063616c6c0060448201526064016102f8565b60025f55565b5f60208284031215610855575f5ffd5b81356001600160a01b03811681146107c6575f5ffd5b5f6020828403121561087b575f5ffd5b5035919050565b5f60208284031215610892575f5ffd5b815180151581146107c6575f5ffd5b634e487b7160e01b5f52601160045260245ffd5b8181038181111561025e5761025e6108a1565b808202811582820484141761025e5761025e6108a1565b5f826108f957634e487b7160e01b5f52601260045260245ffd5b500490565b8082018082111561025e5761025e6108a156fea2646970667358221220f47663c935ebdb99164c96c428ccb29cd08aad88a116296b0bcd65f40dc5b22a64736f6c634300081c0033",
  "linkReferences": {},
  "deployedLinkReferences": {},
  "immutableReferences": {},
  "inputSourceName": "project/contracts/Staking.sol",
  "buildInfoId": "solc-0_8_28-644079ec5e4e954621784bf8f37aff463a2333b5"
}